{
  "contractName": "Crowd",
  "abi": [
    {
      "anonymous": false,
      "inputs": [
        {
          "indexed": true,
          "internalType": "uint256",
          "name": "_crowdId",
          "type": "uint256"
        }
      ],
      "name": "crowdCreated",
      "type": "event"
    },
    {
      "anonymous": false,
      "inputs": [
        {
          "indexed": true,
          "internalType": "uint256",
          "name": "_taskId",
          "type": "uint256"
        }
      ],
      "name": "taskCreated",
      "type": "event"
    },
    {
      "anonymous": false,
      "inputs": [
        {
          "indexed": true,
          "internalType": "uint256",
          "name": "_userId",
          "type": "uint256"
        }
      ],
      "name": "userCreated",
      "type": "event"
    },
    {
      "inputs": [],
      "name": "crowdCount",
      "outputs": [
        {
          "internalType": "uint256",
          "name": "",
          "type": "uint256"
        }
      ],
      "stateMutability": "view",
      "type": "function",
      "constant": true
    },
    {
      "inputs": [
        {
          "internalType": "uint256",
          "name": "",
          "type": "uint256"
        }
      ],
      "name": "crowdList",
      "outputs": [
        {
          "internalType": "string",
          "name": "mobile_device",
          "type": "string"
        },
        {
          "internalType": "string",
          "name": "task_word",
          "type": "string"
        },
        {
          "internalType": "string",
          "name": "sense_file",
          "type": "string"
        }
      ],
      "stateMutability": "view",
      "type": "function",
      "constant": true
    },
    {
      "inputs": [],
      "name": "taskCount",
      "outputs": [
        {
          "internalType": "uint256",
          "name": "",
          "type": "uint256"
        }
      ],
      "stateMutability": "view",
      "type": "function",
      "constant": true
    },
    {
      "inputs": [
        {
          "internalType": "uint256",
          "name": "",
          "type": "uint256"
        }
      ],
      "name": "taskList",
      "outputs": [
        {
          "internalType": "string",
          "name": "stakeholder",
          "type": "string"
        },
        {
          "internalType": "string",
          "name": "task_keywords",
          "type": "string"
        },
        {
          "internalType": "string",
          "name": "task_date",
          "type": "string"
        }
      ],
      "stateMutability": "view",
      "type": "function",
      "constant": true
    },
    {
      "inputs": [],
      "name": "userCount",
      "outputs": [
        {
          "internalType": "uint256",
          "name": "",
          "type": "uint256"
        }
      ],
      "stateMutability": "view",
      "type": "function",
      "constant": true
    },
    {
      "inputs": [
        {
          "internalType": "uint256",
          "name": "",
          "type": "uint256"
        }
      ],
      "name": "userList",
      "outputs": [
        {
          "internalType": "string",
          "name": "username",
          "type": "string"
        },
        {
          "internalType": "string",
          "name": "password",
          "type": "string"
        },
        {
          "internalType": "string",
          "name": "phone",
          "type": "string"
        },
        {
          "internalType": "string",
          "name": "usertype",
          "type": "string"
        }
      ],
      "stateMutability": "view",
      "type": "function",
      "constant": true
    },
    {
      "inputs": [
        {
          "internalType": "string",
          "name": "sh",
          "type": "string"
        },
        {
          "internalType": "string",
          "name": "tk",
          "type": "string"
        },
        {
          "internalType": "string",
          "name": "td",
          "type": "string"
        }
      ],
      "name": "createTask",
      "outputs": [],
      "stateMutability": "nonpayable",
      "type": "function"
    },
    {
      "inputs": [],
      "name": "getTaskCount",
      "outputs": [
        {
          "internalType": "uint256",
          "name": "",
          "type": "uint256"
        }
      ],
      "stateMutability": "view",
      "type": "function",
      "constant": true
    },
    {
      "inputs": [
        {
          "internalType": "uint256",
          "name": "i",
          "type": "uint256"
        }
      ],
      "name": "getStakeholder",
      "outputs": [
        {
          "internalType": "string",
          "name": "",
          "type": "string"
        }
      ],
      "stateMutability": "view",
      "type": "function",
      "constant": true
    },
    {
      "inputs": [
        {
          "internalType": "uint256",
          "name": "i",
          "type": "uint256"
        }
      ],
      "name": "getKeywords",
      "outputs": [
        {
          "internalType": "string",
          "name": "",
          "type": "string"
        }
      ],
      "stateMutability": "view",
      "type": "function",
      "constant": true
    },
    {
      "inputs": [
        {
          "internalType": "uint256",
          "name": "i",
          "type": "uint256"
        }
      ],
      "name": "getTaskdate",
      "outputs": [
        {
          "internalType": "string",
          "name": "",
          "type": "string"
        }
      ],
      "stateMutability": "view",
      "type": "function",
      "constant": true
    },
    {
      "inputs": [
        {
          "internalType": "string",
          "name": "md",
          "type": "string"
        },
        {
          "internalType": "string",
          "name": "tw",
          "type": "string"
        },
        {
          "internalType": "string",
          "name": "sf",
          "type": "string"
        }
      ],
      "name": "createCrowdData",
      "outputs": [],
      "stateMutability": "nonpayable",
      "type": "function"
    },
    {
      "inputs": [],
      "name": "getCrowdCount",
      "outputs": [
        {
          "internalType": "uint256",
          "name": "",
          "type": "uint256"
        }
      ],
      "stateMutability": "view",
      "type": "function",
      "constant": true
    },
    {
      "inputs": [
        {
          "internalType": "uint256",
          "name": "i",
          "type": "uint256"
        }
      ],
      "name": "getMobiledevice",
      "outputs": [
        {
          "internalType": "string",
          "name": "",
          "type": "string"
        }
      ],
      "stateMutability": "view",
      "type": "function",
      "constant": true
    },
    {
      "inputs": [
        {
          "internalType": "uint256",
          "name": "i",
          "type": "uint256"
        }
      ],
      "name": "getTaskword",
      "outputs": [
        {
          "internalType": "string",
          "name": "",
          "type": "string"
        }
      ],
      "stateMutability": "view",
      "type": "function",
      "constant": true
    },
    {
      "inputs": [
        {
          "internalType": "uint256",
          "name": "i",
          "type": "uint256"
        }
      ],
      "name": "getSensefile",
      "outputs": [
        {
          "internalType": "string",
          "name": "",
          "type": "string"
        }
      ],
      "stateMutability": "view",
      "type": "function",
      "constant": true
    },
    {
      "inputs": [
        {
          "internalType": "string",
          "name": "_username",
          "type": "string"
        },
        {
          "internalType": "string",
          "name": "_password",
          "type": "string"
        },
        {
          "internalType": "string",
          "name": "_phone",
          "type": "string"
        },
        {
          "internalType": "string",
          "name": "ut",
          "type": "string"
        }
      ],
      "name": "createUser",
      "outputs": [],
      "stateMutability": "nonpayable",
      "type": "function"
    },
    {
      "inputs": [],
      "name": "getUserCount",
      "outputs": [
        {
          "internalType": "uint256",
          "name": "",
          "type": "uint256"
        }
      ],
      "stateMutability": "view",
      "type": "function",
      "constant": true
    },
    {
      "inputs": [
        {
          "internalType": "uint256",
          "name": "i",
          "type": "uint256"
        }
      ],
      "name": "getUsername",
      "outputs": [
        {
          "internalType": "string",
          "name": "",
          "type": "string"
        }
      ],
      "stateMutability": "view",
      "type": "function",
      "constant": true
    },
    {
      "inputs": [
        {
          "internalType": "uint256",
          "name": "i",
          "type": "uint256"
        }
      ],
      "name": "getPassword",
      "outputs": [
        {
          "internalType": "string",
          "name": "",
          "type": "string"
        }
      ],
      "stateMutability": "view",
      "type": "function",
      "constant": true
    },
    {
      "inputs": [
        {
          "internalType": "uint256",
          "name": "i",
          "type": "uint256"
        }
      ],
      "name": "getPhone",
      "outputs": [
        {
          "internalType": "string",
          "name": "",
          "type": "string"
        }
      ],
      "stateMutability": "view",
      "type": "function",
      "constant": true
    },
    {
      "inputs": [
        {
          "internalType": "uint256",
          "name": "i",
          "type": "uint256"
        }
      ],
      "name": "getUsertype",
      "outputs": [
        {
          "internalType": "string",
          "name": "",
          "type": "string"
        }
      ],
      "stateMutability": "view",
      "type": "function",
      "constant": true
    }
  ],
  "bytecode": "0x6080604052600080556000600255600060045534801561001e57600080fd5b50611c5a8061002e6000396000f3fe608060405234801561001057600080fd5b506004361061015f576000357c010000000000000000000000000000000000000000000000000000000090048063aebbb5bd116100d5578063d2344f0a11610099578063d2344f0a146102ab578063da468359146102be578063f18d18cc146102d1578063f1ef6ab0146102e4578063f38c6bb6146102ed578063fa9d3dfa1461030057600080fd5b8063aebbb5bd1461026c578063b5cb15f71461027f578063b6cb58a514610287578063c17a340e14610290578063c98516291461029857600080fd5b80632e7d44b5116101275780632e7d44b5146101ea57806335129329146101fd5780635bba6874146102105780635f2b08f5146102235780636f7fcddb146102365780639f4216e81461024957600080fd5b806307973ccf146101645780631a22c922146101805780632064f2b6146101a057806324162886146101b35780632a1c52a5146101c8575b600080fd5b61016d60045481565b6040519081526020015b60405180910390f35b61019361018e366004611882565b610308565b60405161017791906118e8565b6101936101ae366004611882565b61057e565b6101c66101c13660046119be565b610760565b005b6101db6101d6366004611882565b610820565b60405161017793929190611a46565b6101936101f8366004611882565b6109da565b61019361020b366004611882565b610c50565b61019361021e366004611882565b610da6565b610193610231366004611882565b610dd8565b6101c6610244366004611a89565b610fbc565b61025c610257366004611882565b6110a0565b6040516101779493929190611b36565b61019361027a366004611882565b6112e8565b60045461016d565b61016d60005481565b60005461016d565b6101936102a6366004611882565b61131a565b6101c66102b93660046119be565b61134c565b6101db6102cc366004611882565b6113fe565b6101936102df366004611882565b611419565b61016d60025481565b6101936102fb366004611882565b611601565b60025461016d565b606060006005600084815260200190815260200160002060405180608001604052908160008201805461033a90611b8e565b80601f016020809104026020016040519081016040528092919081815260200182805461036690611b8e565b80156103b35780601f10610388576101008083540402835291602001916103b3565b820191906000526020600020905b81548152906001019060200180831161039657829003601f168201915b505050505081526020016001820180546103cc90611b8e565b80601f01602080910402602001604051908101604052809291908181526020018280546103f890611b8e565b80156104455780601f1061041a57610100808354040283529160200191610445565b820191906000526020600020905b81548152906001019060200180831161042857829003601f168201915b5050505050815260200160028201805461045e90611b8e565b80601f016020809104026020016040519081016040528092919081815260200182805461048a90611b8e565b80156104d75780601f106104ac576101008083540402835291602001916104d7565b820191906000526020600020905b8154815290600101906020018083116104ba57829003601f168201915b505050505081526020016003820180546104f090611b8e565b80601f016020809104026020016040519081016040528092919081815260200182805461051c90611b8e565b80156105695780601f1061053e57610100808354040283529160200191610569565b820191906000526020600020905b81548152906001019060200180831161054c57829003601f168201915b50505091909252505050606001519392505050565b60606000600360008481526020019081526020016000206040518060600160405290816000820180546105b090611b8e565b80601f01602080910402602001604051908101604052809291908181526020018280546105dc90611b8e565b80156106295780601f106105fe57610100808354040283529160200191610629565b820191906000526020600020905b81548152906001019060200180831161060c57829003601f168201915b5050505050815260200160018201805461064290611b8e565b80601f016020809104026020016040519081016040528092919081815260200182805461066e90611b8e565b80156106bb5780601f10610690576101008083540402835291602001916106bb565b820191906000526020600020905b81548152906001019060200180831161069e57829003601f168201915b505050505081526020016002820180546106d490611b8e565b80601f016020809104026020016040519081016040528092919081815260200182805461070090611b8e565b801561074d5780601f106107225761010080835404028352916020019161074d565b820191906000526020600020905b81548152906001019060200180831161073057829003601f168201915b5050509190925250509051949350505050565b6040805160608101825284815260208082018590528183018490526002546000908152600382529290922081518051929391926107a092849201906117e9565b5060208281015180516107b992600185019201906117e9565b50604082015180516107d59160028401916020909101906117e9565b50506002546040519091507fbd3a8944f935b2f3ac157180f3c82fc38787f4d49cdadceea79a1d692629e2a590600090a26002805490600061081683611be2565b9190505550505050565b60016020526000908152604090208054819061083b90611b8e565b80601f016020809104026020016040519081016040528092919081815260200182805461086790611b8e565b80156108b45780601f10610889576101008083540402835291602001916108b4565b820191906000526020600020905b81548152906001019060200180831161089757829003601f168201915b5050505050908060010180546108c990611b8e565b80601f01602080910402602001604051908101604052809291908181526020018280546108f590611b8e565b80156109425780601f1061091757610100808354040283529160200191610942565b820191906000526020600020905b81548152906001019060200180831161092557829003601f168201915b50505050509080600201805461095790611b8e565b80601f016020809104026020016040519081016040528092919081815260200182805461098390611b8e565b80156109d05780601f106109a5576101008083540402835291602001916109d0565b820191906000526020600020905b8154815290600101906020018083116109b357829003601f168201915b5050505050905083565b6060600060056000848152602001908152602001600020604051806080016040529081600082018054610a0c90611b8e565b80601f0160208091040260200160405190810160405280929190818152602001828054610a3890611b8e565b8015610a855780601f10610a5a57610100808354040283529160200191610a85565b820191906000526020600020905b815481529060010190602001808311610a6857829003601f168201915b50505050508152602001600182018054610a9e90611b8e565b80601f0160208091040260200160405190810160405280929190818152602001828054610aca90611b8e565b8015610b175780601f10610aec57610100808354040283529160200191610b17565b820191906000526020600020905b815481529060010190602001808311610afa57829003601f168201915b50505050508152602001600282018054610b3090611b8e565b80601f0160208091040260200160405190810160405280929190818152602001828054610b5c90611b8e565b8015610ba95780601f10610b7e57610100808354040283529160200191610ba9565b820191906000526020600020905b815481529060010190602001808311610b8c57829003601f168201915b50505050508152602001600382018054610bc290611b8e565b80601f0160208091040260200160405190810160405280929190818152602001828054610bee90611b8e565b8015610c3b5780601f10610c1057610100808354040283529160200191610c3b565b820191906000526020600020905b815481529060010190602001808311610c1e57829003601f168201915b50505091909252505050604001519392505050565b6060600060016000848152602001908152602001600020604051806060016040529081600082018054610c8290611b8e565b80601f0160208091040260200160405190810160405280929190818152602001828054610cae90611b8e565b8015610cfb5780601f10610cd057610100808354040283529160200191610cfb565b820191906000526020600020905b815481529060010190602001808311610cde57829003601f168201915b50505050508152602001600182018054610d1490611b8e565b80601f0160208091040260200160405190810160405280929190818152602001828054610d4090611b8e565b8015610d8d5780601f10610d6257610100808354040283529160200191610d8d565b820191906000526020600020905b815481529060010190602001808311610d7057829003601f168201915b50505050508152602001600282018054610bc290611b8e565b6060600060036000848152602001908152602001600020604051806060016040529081600082018054610c8290611b8e565b6060600060016000848152602001908152602001600020604051806060016040529081600082018054610e0a90611b8e565b80601f0160208091040260200160405190810160405280929190818152602001828054610e3690611b8e565b8015610e835780601f10610e5857610100808354040283529160200191610e83565b820191906000526020600020905b815481529060010190602001808311610e6657829003601f168201915b50505050508152602001600182018054610e9c90611b8e565b80601f0160208091040260200160405190810160405280929190818152602001828054610ec890611b8e565b8015610f155780601f10610eea57610100808354040283529160200191610f15565b820191906000526020600020905b815481529060010190602001808311610ef857829003601f168201915b50505050508152602001600282018054610f2e90611b8e565b80601f0160208091040260200160405190810160405280929190818152602001828054610f5a90611b8e565b8015610fa75780601f10610f7c57610100808354040283529160200191610fa7565b820191906000526020600020905b815481529060010190602001808311610f8a57829003601f168201915b50505091909252505050602001519392505050565b6040805160808101825285815260208082018690528183018590526060820184905260045460009081526005825292909220815180519293919261100392849201906117e9565b50602082810151805161101c92600185019201906117e9565b50604082015180516110389160028401916020909101906117e9565b50606082015180516110549160038401916020909101906117e9565b50506004546040519091507f1ed675bb725b3a8b0434b9ee956fe05e4c0e79f9dc67c3f1a717a5bb1fd88fd390600090a26004805490600061109583611be2565b919050555050505050565b6005602052600090815260409020805481906110bb90611b8e565b80601f01602080910402602001604051908101604052809291908181526020018280546110e790611b8e565b80156111345780601f1061110957610100808354040283529160200191611134565b820191906000526020600020905b81548152906001019060200180831161111757829003601f168201915b50505050509080600101805461114990611b8e565b80601f016020809104026020016040519081016040528092919081815260200182805461117590611b8e565b80156111c25780601f10611197576101008083540402835291602001916111c2565b820191906000526020600020905b8154815290600101906020018083116111a557829003601f168201915b5050505050908060020180546111d790611b8e565b80601f016020809104026020016040519081016040528092919081815260200182805461120390611b8e565b80156112505780601f1061122557610100808354040283529160200191611250565b820191906000526020600020905b81548152906001019060200180831161123357829003601f168201915b50505050509080600301805461126590611b8e565b80601f016020809104026020016040519081016040528092919081815260200182805461129190611b8e565b80156112de5780601f106112b3576101008083540402835291602001916112de565b820191906000526020600020905b8154815290600101906020018083116112c157829003601f168201915b5050505050905084565b6060600060036000848152602001908152602001600020604051806060016040529081600082018054610e0a90611b8e565b60606000600160008481526020019081526020016000206040518060600160405290816000820180546105b090611b8e565b6040805160608101825284815260208082018590528183018490526000805481526001825292909220815180519293919261138a92849201906117e9565b5060208281015180516113a392600185019201906117e9565b50604082015180516113bf9160028401916020909101906117e9565b5050600080546040519092507fa7e0931a54a3ce9e771f0436ad8368cd2249f49c0e7e90a0208d7ff66fa8803b9190a260008054908061081683611be2565b60036020526000908152604090208054819061083b90611b8e565b606060006005600084815260200190815260200160002060405180608001604052908160008201805461144b90611b8e565b80601f016020809104026020016040519081016040528092919081815260200182805461147790611b8e565b80156114c45780601f10611499576101008083540402835291602001916114c4565b820191906000526020600020905b8154815290600101906020018083116114a757829003601f168201915b505050505081526020016001820180546114dd90611b8e565b80601f016020809104026020016040519081016040528092919081815260200182805461150990611b8e565b80156115565780601f1061152b57610100808354040283529160200191611556565b820191906000526020600020905b81548152906001019060200180831161153957829003601f168201915b5050505050815260200160028201805461156f90611b8e565b80601f016020809104026020016040519081016040528092919081815260200182805461159b90611b8e565b80156115e85780601f106115bd576101008083540402835291602001916115e8565b820191906000526020600020905b8154815290600101906020018083116115cb57829003601f168201915b505050505081526020016003820180546106d490611b8e565b606060006005600084815260200190815260200160002060405180608001604052908160008201805461163390611b8e565b80601f016020809104026020016040519081016040528092919081815260200182805461165f90611b8e565b80156116ac5780601f10611681576101008083540402835291602001916116ac565b820191906000526020600020905b81548152906001019060200180831161168f57829003601f168201915b505050505081526020016001820180546116c590611b8e565b80601f01602080910402602001604051908101604052809291908181526020018280546116f190611b8e565b801561173e5780601f106117135761010080835404028352916020019161173e565b820191906000526020600020905b81548152906001019060200180831161172157829003601f168201915b5050505050815260200160028201805461175790611b8e565b80601f016020809104026020016040519081016040528092919081815260200182805461178390611b8e565b80156117d05780601f106117a5576101008083540402835291602001916117d0565b820191906000526020600020905b8154815290600101906020018083116117b357829003601f168201915b50505050508152602001600382018054610f2e90611b8e565b8280546117f590611b8e565b90600052602060002090601f016020900481019282611817576000855561185d565b82601f1061183057805160ff191683800117855561185d565b8280016001018555821561185d579182015b8281111561185d578251825591602001919060010190611842565b5061186992915061186d565b5090565b5b80821115611869576000815560010161186e565b60006020828403121561189457600080fd5b5035919050565b6000815180845260005b818110156118c1576020818501810151868301820152016118a5565b818111156118d3576000602083870101525b50601f01601f19169290920160200192915050565b6020815260006118fb602083018461189b565b9392505050565b7f4e487b7100000000000000000000000000000000000000000000000000000000600052604160045260246000fd5b600082601f83011261194257600080fd5b813567ffffffffffffffff8082111561195d5761195d611902565b604051601f8301601f19908116603f0116810190828211818310171561198557611985611902565b8160405283815286602085880101111561199e57600080fd5b836020870160208301376000602085830101528094505050505092915050565b6000806000606084860312156119d357600080fd5b833567ffffffffffffffff808211156119eb57600080fd5b6119f787838801611931565b94506020860135915080821115611a0d57600080fd5b611a1987838801611931565b93506040860135915080821115611a2f57600080fd5b50611a3c86828701611931565b9150509250925092565b606081526000611a59606083018661189b565b8281036020840152611a6b818661189b565b90508281036040840152611a7f818561189b565b9695505050505050565b60008060008060808587031215611a9f57600080fd5b843567ffffffffffffffff80821115611ab757600080fd5b611ac388838901611931565b95506020870135915080821115611ad957600080fd5b611ae588838901611931565b94506040870135915080821115611afb57600080fd5b611b0788838901611931565b93506060870135915080821115611b1d57600080fd5b50611b2a87828801611931565b91505092959194509250565b608081526000611b49608083018761189b565b8281036020840152611b5b818761189b565b90508281036040840152611b6f818661189b565b90508281036060840152611b83818561189b565b979650505050505050565b600281046001821680611ba257607f821691505b60208210811415611bdc577f4e487b7100000000000000000000000000000000000000000000000000000000600052602260045260246000fd5b50919050565b6000600019821415611c1d577f4e487b7100000000000000000000000000000000000000000000000000000000600052601160045260246000fd5b506001019056fea2646970667358221220a2c24c25bc13b77490fb83021235e224155c4881ed7d2aaa42c86982196a774a64736f6c634300080b0033",
  "immutableReferences": {},
  "source": "pragma solidity >= 0.8.11 <= 0.8.11;\r\npragma experimental ABIEncoderV2;\r\n//Crowd Mobile Sense solidity code\r\ncontract Crowd {\r\n\r\n    uint public taskCount = 0; \r\n    mapping(uint => task) public taskList; \r\n     struct task\r\n     {\r\n       string stakeholder;\r\n       string task_keywords;\r\n       string task_date;       \r\n     }\r\n \r\n   // events \r\n   event taskCreated(uint indexed _taskId);\r\n\r\n  \r\n   //function  to save task details\r\n   function createTask(string memory sh, string memory tk,string memory td) public {\r\n      taskList[taskCount] = task(sh, tk, td);\r\n      emit taskCreated(taskCount);\r\n      taskCount++;\r\n    }\r\n\r\n     //get task count\r\n    function getTaskCount()  public view returns (uint) {\r\n          return taskCount;\r\n    }    \r\n\r\n    function getStakeholder(uint i) public view returns (string memory) {\r\n        task memory s = taskList[i];\r\n\treturn s.stakeholder;\r\n    }\r\n\r\n    function getKeywords(uint i) public view returns (string memory) {\r\n        task memory s = taskList[i];\r\n\treturn s.task_keywords;\r\n    }\r\n\r\n    function getTaskdate(uint i) public view returns (string memory) {\r\n        task memory s = taskList[i];\r\n\treturn s.task_date;\r\n    }\r\n\r\n    uint public crowdCount = 0; \r\n    mapping(uint => crowd) public crowdList; \r\n     struct crowd\r\n     {\r\n       string mobile_device;\r\n       string task_word;\r\n       string sense_file;        \r\n     }\r\n \r\n   // events\r\n \r\n   event crowdCreated(uint indexed _crowdId);\r\n \r\n  function createCrowdData(string memory md, string memory tw, string memory sf) public {\r\n      crowdList[crowdCount] = crowd(md, tw, sf);\r\n      emit crowdCreated(crowdCount);\r\n      crowdCount++;\r\n    }\r\n\r\n    //get crowd sense count\r\n    function getCrowdCount()  public view returns (uint) {\r\n          return  crowdCount;\r\n    }\r\n\r\n    function getMobiledevice(uint i) public view returns (string memory) {\r\n        crowd memory usr = crowdList[i];\r\n\treturn usr.mobile_device;\r\n    }\r\n\r\n    function getTaskword(uint i) public view returns (string memory) {\r\n        crowd memory usr = crowdList[i];\r\n\treturn usr.task_word;\r\n    }\r\n\r\n    \r\n    function getSensefile(uint i) public view returns (string memory) {\r\n        crowd memory usr = crowdList[i];\r\n\treturn usr.sense_file;\r\n    }       \r\n\r\n    uint public userCount = 0; \r\n    mapping(uint => user) public userList; \r\n     struct user\r\n     {\r\n       string username;\r\n       string password;\r\n       string phone;    \r\n       string usertype;\r\n     }\r\n \r\n   // events\r\n \r\n   event userCreated(uint indexed _userId);\r\n \r\n  function createUser(string memory _username, string memory _password, string memory _phone, string memory ut) public {\r\n      userList[userCount] = user(_username, _password, _phone, ut);\r\n      emit userCreated(userCount);\r\n      userCount++;\r\n    }\r\n\r\n    //get user count\r\n    function getUserCount()  public view returns (uint) {\r\n          return  userCount;\r\n    }\r\n\r\n    function getUsername(uint i) public view returns (string memory) {\r\n        user memory usr = userList[i];\r\n\treturn usr.username;\r\n    }\r\n\r\n    function getPassword(uint i) public view returns (string memory) {\r\n        user memory usr = userList[i];\r\n\treturn usr.password;\r\n    }\r\n\r\n    \r\n    function getPhone(uint i) public view returns (string memory) {\r\n        user memory usr = userList[i];\r\n\treturn usr.phone;\r\n    }   \r\n\r\n    function getUsertype(uint i) public view returns (string memory) {\r\n        user memory usr = userList[i];\r\n\treturn usr.usertype;\r\n    }   \r\n}",
  "sourcePath": "C:\\Users\\Admin\\Desktop\\Blockchain\\hello-eth\\node_modules\\.bin\\contracts\\Crowd.sol",
  "compiler": {
    "name": "solc",
    "version": "0.8.11+commit.d7f03943.Emscripten.clang"
  },
  "schemaVersion": "3.4.4",
  "updatedAt": "2025-08-27T06:16:06.704Z",
  "networkType": "ethereum",
  "devdoc": {
    "kind": "dev",
    "methods": {},
    "version": 1
  },
  "userdoc": {
    "kind": "user",
    "methods": {},
    "version": 1
  }
}